:100000000C94B4070C94C6070C94C6070C94C6074E
:100010000C94C6070C94C6070C94C6070C94C6072C
:100020000C94C6070C94C6070C94C6070C943708AA
:100030000C94C6070C94C6070C94C6070C94C6070C
:100040000C94ED070C94C6070C94C6070C94C607D5
:100050000C94C6070C94C6070C94C6070C94C607EC
:100060000C94C6070C94C6070000000800020100AB
:100070000003040700000000000000000000000072
:10008000250028002B0000000000240027002A0083
:10009000040404040404040402020202020203032E
:1000A0000303030301020408102040800102040836
:1000B000102001020408102052494646EE0A0100B1
:1000C00057415645666D7420100000000100010084
:1000D00080BB000080BB0000010008006461746107
:1000E000C90A010080808080808080808181818138
:1000F00081818181818181818182828282828282E9
:1001000082828282828282828281818181818181D6
:100110008181818180808080808080808080807FDC
:100120007F7F7F7F7F7F7E7E7E7E7E7E7E7E7E7EE9
:100130007E7E7E7E7E7F7F7F7F7F7F8080808080CF
:1001400080818181818181818181818181818181A0
:10015000818181818080808080808080808080809B
:1001600080807F7F7F7F7F7F7F7F7F7F7F7F7F7F9D
:100170007F7F7F7F7F7F7F7F7F7F7F7E7E7E7E7E94
:100180007E7E7E7E7E7E7E7E7E7E7E7E7E7F7F7F8C
:100190007F7F7F808080808080808081818181805E
:1001A000808080808080808080808080808080804F
:1001B0008080808080808080807F7F7F7F7F7F7F46
:1001C0007F7F7F7F7F7F7F7F7F7F7F7F7F7F7F7F3F
:1001D0007F7F7F7F7F808080808080808081818121
:1001E00081818181818181818181818181818181FF
:1001F00081818181818181818181818181808080F2
:1002000080808080808080808080808080808080EE
:10021000808080808080808080807F7F7F7F7F7FE4
:100220007F7F7F7F7F7F7F7F7F7F808080808080D8
:1002300080808080808081818181818181818181B4
:1002400080808080808080808080808080807F7FB0
:100250007F7F7F7F7F7F7F7F7F7F7F7F7F7F7F7EAF
:100260007E7E7E7E7E7E7E7E7E7E7E7E7E7E7E7EAE
:100270007E7E7E7E7E7E7E7E7E7E7E7E7E7E7E7E9E
:100280007F7F7F7F8080808080818181818181816B
:100290008182828282828181818181818181818149
:1002A0008181818181818180808080808080808047
:1002B0007F7F7F7F7F7F7F7F7F7E7E7E7E7E7E7E55
:1002C0007E7E7E7E7E7E7E7E7E7F7F7F7F7F7F7F47
:1002D0007F7F80808080808080808081818181811B
:1002E00081818282828282828282828282828282F0
:1002F00082828282828281818181818181818181E8
:10030000808080808080807F7F7F7F7F7F7F7E7EF8
:100310007E7E7E7E7E7E7E7E7E7E7E7E7E7F7F7FFA
:100320007F7F7F7F7F7F7F808080808080808080D4
:1003300080808080808080808080808080808080BD
:1003400080807F80808080808080808080808080AE
:10035000808080808080808080808080808080809D
:10036000808080807F7F7F7F7F7F7F7F7E7E7E7E9D
:100370007E7E7E7E7E7E7F7F7F7F7F7F7F7F7F8092
:10038000808080808080808080808080808080806D
:100390008080808080808080808080808080807F5E
:1003A0007F7F7F7F7F7F7F7F7F7F7F7F7F7F7F7F5D
:1003B0007F7F7F7F7F7F7F7F7F7F7F7F7F7F7F7F4D
:1003C0007F8080808080808080808080818181812A
:1003D0008181818181818282828282828282828203
:1003E00082828282828282818181818181818181F6
:1003F00080808080808080808080807F7F7F7F7F02
:100400007F7F7F7F7F7F7E7E7E7E7E7E7F7F7F7F02
:100410007F7F7F7F7F7F80808080808080808080E2
:1004200080808080808080808080808080808080CC
:1004300080808080808080808080808080807F80BD
:100440007F7F7F7F7F7F7F7F7F7F7F7F7F7F7F7FBC
:100450007F7F7F7F7F7F7F7E7E7E7E7E7E7E7E7EB5
:100460007E7E7E7E7E7E7E7E7E7E7E7F7F7F7F7FA7
:100470007F7F80808080808080808080808080807E
:10048000808080808080808080808080808080806C
:10049000808080808080808080808080808080805C
:1004A0008080808080807F7F7F7F7F7F7F7F7F7F56
:1004B0007F7F7F7F7F7F7F7F808080808080808044
:1004C000808080808080818181818181818282821F
:1004D00082828282828282828282828282828282FC
:1004E000818181818181818080808080807F7F7F08
:1004F0007F7F7F7F7F7E7E7E7E7E7E7E7E7E7E7E17
:100500007E7E7E7E7E7F7F7F7F7F7F7F80808080FC
:1005100080808181818181818181818181818181CD
:1005200081818181818181818181818181818181BB
:10053000818080808080808080808080807F7F7FBD
:100540007F7F7F7F7F7F7F7F7F7F7F7F7E7E7E7EBF
:100550007E7E7E7E7E7E7E7E7E7E7E7E7E7E7E7EBB
:100560007E7F7F7F7F7F7F7F7F7F7F808080808097
:10057000808080808080808080808080808080807B
:10058000808080808080808080808080808080806B
:1005900080808080808080808080808080807F7F5D
:1005A0007F807F7F7F7F7F7F7F7F7F7F7F7F807F59
:1005B000808080808080808080808080808080813A
:1005C000818181818181818181818181818181811B
:1005D000818181818181818181818181818080800E
:1005E0008080808080808080808080807F7F7F7F0F
:1005F0007F7F7F7F7F7F7F7F7F7F7F7F7F7F7F7F0B
:1006000080808080808080808080808080808080EA
:1006100080808080808080808080808080808080DA
:1006200080808080808080808080807F7F7F7F7FCF
:100630007F7F7F7F7E7E7E7E7E7E7E7E7E7E7E7ED6
:100640007E7E7E7E7E7E7D7D7D7D7D7E7E7E7E7ECF
:100650007E7E7E7F7F7F7F7F8080808080808181A3
:10066000818181818181818181818181818181817A
:10067000818181818181818181818181808080806E
:100680008080808080808080808080807F7F7F7F6E
:100690007F7F7F7F7F7F7F7F7F7F7F7F7F7F7F7F6A
:1006A0007F7F7F7F7F7F7F7F7F7F7F808080808055
:1006B0008080818181818181818181828282828227
:1006C0008282828282828282828181818181818111
:1006D0008180808080808080807F7F7F7F7F7F7F20
:1006E0007F7F7F7F7F7F7F7F7F7F7F7F7F7F7F7F1A
:1006F0007F7F7F7F7F7F7F7F7F7F7F7F8080808006
:1007000080808080808080808080808080808080E9
:1007100080808080808080808080808080808080D9
:100720008080808080808080808080808080807FCA
:100730007F7F7F7F7F7F7F7F7F7F7E7E7E7E7E7ECF
:100740007E7E7E7E7E7E7E7E7E7E7E7F7F7F7F7FC4
:100750007F7F80808080808080808080808080809B
:100760008080808080808080808080808080808089
:1007700080808080808080808080807F7F7F7F7F7E
:100780007F7F7F7F7F7F7F7F7F7F7F7F7F7F7F7F79
:100790007F7F7F7F7F7F7F7F7F7F7F7F7F80808066
:1007A0008080808181818181818282828282828235
:1007B000828282828282828282828282828281811B
:1007C0008181818181818080808080808080808023
:1007D0007F7F7F7F7F7F7F7F7F7F7F7F7F7F7F7F29
:1007E0007F7F7F7F7F7F7F7F7F7F7F7F7F7F7F7F19
:1007F0007F7F7F7F7F7F7F7F7F7F7F7F7F7F7F7F09
:100800007F7F7F80808080808080808080808080EB
:100810008080808080808080808080808080807FD9
:100820007F7F7F7F7F7F7F7F7F7E7E7E7E7E7E7EDF
:100830007E7E7E7E7E7E7E7E7E7E7E7E7E7E7E7ED8
:100840007E7F7F7F7F7F7F7F7F80808080808080B2
:100850008080808080808080808080808080808098
:10086000808081818181818181818181818181807B
:1008700080808080808080807F7F7F7F7F7F7F7F80
:100880007F7F7F7F7F7F7F7F7F7F7F7F7F7F7F7F78
:100890007F7F7F8080808080808181818181818154
:1008A0008282828282828282828282828282828228
:1008B000828282828181818181818080808080802A
:1008C0007F7F7F7F7F7F7F7F7F7F7E7E7E7E7E7E3E
:1008D0007E7E7E7E7E7F7F7F7F7F7F7F7F7F7F7F2D
:1008E0007F7F7F808080808080808080808080800B
:1008F00080808080808181818181818181818181ED
:1009000081818181818181818180808080808080DE
:1009100080808080807F7F7F7F7F7F7F7F7F7F7FE2
:100920007F7E7F7E7E7E7E7E7E7E7E7E7E7E7E7EE5
:100930007E7E7E7E7E7E7E7E7E7E7F7F7F7F7F7FD1
:100940007F7F7F7F7F7F80808080808080808080AD
:10095000808080808080818181818181818181818D
:100960008181818181808080808080808080807F83
:100970007F7F7F7F7F7F7F7F7F7F7F7F7F7F7F7F87
:100980007F7F7F7F7F7F7F7F7F8080808080808070
:100990008081818181818181818182828282828242
:1009A0008282828282828181818181818181818131
:1009B0008180808080808080808080808080808036
:1009C0007F7F7F7F7F7F7F7F7F7F7F7F7F7F7F7F37
:1009D0007F7F7F7F7F7F7F7F7F7F7F7F7F7F7F7F27
:1009E0007F7F7F7F7F7F808080808080808080800D
:1009F0008080808080808080808080808080807FF8
:100A00007F7F7F7F7F7F7F7F7F7F7E7E7E7E7E7EFC
:100A10007E7E7E7E7E7E7E7E7E7E7E7E7E7E7E7EF6
:100A20007E7E7E7E7E7E7E7F7F7F7F7F7F7F8080DB
:100A300080808080808080808080808080818181B3
:100A40008181818181818181818181818181818196
:100A5000818181818181818181818181808080808A
:100A6000808080807F7F7F7F7F7F7F7F7F7F7F7F92
:100A70007F7E7F7F7F7F7F7F7F7F7F7F7F7F7F7F87
:100A80007F80808080808080808181818181818160
:100A90008282828282828282828282828281818139
:100AA000818181818181818181808080808080803D
:100AB00080807F7F7F7F7F7F7F7F7E7E7E7E7E7E4A
:100AC0007E7E7E7E7E7E7E7F7F7F7F7F7F7F7F7F3D
:100AD0007F7F7F7F7F7F7F7F7F808080808080801F
:100AE00080808080808081808181818181818181FD
:100AF00081808080808080808080808080807F7FF7
:100B00007F7F7F7F7F7F7F7F7F7F7F7F7F7F7F7FF5
:100B10007F7E7F7E7E7E7E7E7E7F7E7F7F7F7F7FED
:100B20007F7F7F7F7F7F7F7F8080808080808080CD
:100B300080808080808080808080808080808080B5
:100B400080808080808080808080808080808080A5
:100B500080807F7F7F7F7F7F7F7F7F7F7E7E7E7EA7
:100B60007E7E7E7E7E7E7E7E7F7F7F7F7F7F7F7F9D
:100B7000808080808080808081818181818181816D
:100B80008181828282828282828282828282828247
:100B9000828282828282838383838383838383832B
:100BA000838383838382828282818180807F7F7E30
:100BB0007E7D7C7C7B7A79797877767675747372B2
:100BC000727170706F6E6E6E6D6D6D6D6D6D6D6D41
:100BD0006D6D6E6E6F6F7071717273747475767700
:100BE0007878797A7B7B7C7D7D7E7E7E7F7F7F803F
:100BF00080808080808080808080808080808080F5
:100C000080808080808080808081818182828383D7
:100C100084848586868788898A8B8B8C8D8E8F903D
:100C2000919292939495959696979798989898996B
:100C3000989998989897979796959594939291915B
:100C4000908F8E8D8C8B8A89888786858584838218
:100C5000818180807F7F7E7E7D7D7D7D7C7C7C7CB4
:100C60007C7C7C7C7C7C7C7C7C7C7C7C7C7D7D7DC1
:100C70007D7D7D7D7D7D7D7D7D7D7D7D7D7D7D7DA4
:100C80007D7D7D7C7C7C7C7C7C7B7B7B7B7B7B7BA8
:100C90007A7A7A7A7A7A7A7A7A7A7A7A7A7A7A7AB4
:100CA0007A7A7A7A7A7B7B7B7B7B7B7B7C7C7C7C95
:100CB0007C7C7D7D7D7D7D7E7E7E7E7E7E7F7F7F5A
:100CC0007F7F7F7F7F808080808080808080808029
:100CD000808080808081818181818181818080800C
:100CE0008080808080808080808080808080808004
:100CF0008080808080808080807F7F7F7F7F7F7FFB
:100D00007E7E7E7E7E7E7E7E7E7E7E7E7E7E7E7E03
:100D10007E7F7F7F7F7F7F7F7F7F7F8080808080DF
:100D200081818181818282828282838383838383A2
:100D3000838383838383838382828282828281818D
:100D4000818181808080808080807F7F7F7F7F7FA6
:100D50007F7F7F7F7F7F7F7F80808080808080809B
:100D6000818181818181818181818282828282826D
:100D7000828282828282818181818181818181815D
:100D80008181808080808080807F7F7F7F7F7F7F68
:100D90007F7E7E7E7E7E7E7E7E7E7E7E7E7E7E7D73
:100DA0007D7D7D7D7D7D7D7D7D7E7E7E7E7E7E7E6C
:100DB0007F7F7F7F80808080808081818181818230
:100DC0008282828282828282828282828281818007
:100DD00080807F7E7E7D7C7C7B7A79797877767562
:100DE00075747372727170706F6F6E6E6D6D6D6D04
:100DF0006C6C6C6C6D6D6D6D6E6E6F6F7071717211
:100E00007373747576767778797A7A7B7C7C7D7E5D
:100E10007E7F7F80808181818282828282838383C0
:100E2000838383838383838383838384848484848D
:100E30008485858585868687878888898A8A8B8C3C
:100E40008C8D8E8F8F909192929394949595969687
:100E5000969696979796969696969595959494933A
:100E600092929190908F8E8D8C8C8B8A89898887B5
:100E7000868685848483838282818180807F7F7E51
:100E80007E7E7D7D7D7C7C7C7C7B7B7B7B7B7B7AA3
:100E90007A7A7A7A7A7A7A7A7A7A7A7A7A7A7A7AB2
:100EA0007A7A7A7A7A7A7A7A7A7A7A7A7A7A7A7AA2
:100EB0007A7A7A7B7B7B7B7B7B7B7B7B7B7B7B7B85
:100EC0007C7C7C7C7C7C7C7C7C7C7C7C7C7C7C7C62
:100ED0007C7C7D7D7D7D7D7D7D7D7E7E7E7E7E7E3E
:100EE0007E7E7E7E7E7E7E7E7E7E7E7E7E7E7E7E22
:100EF0007E7E7E7E7E7E7E7E7E7E7E7E7F7F7F7F0E
:100F00007F7F7F7F7F7F7F808080808080808080E8
:100F100081818181818181818181818181818181C1
:100F200081818080808080807F7F7F7F7F7F7F7FC7
:100F30007F7F7F7F7F7F7F7F7F7F7F7F7F7F7F80C0
:100F40008080808080808080818181818181828297
:100F50008282828282828383838383838383838367
:100F6000838383838383838311241FBECFEFD8E0E1
:100F7000DEBFCDBF21E0A0E0B1E001C01D92A031F5
:100F8000B207E1F70E94E6080C94D3090C94000024
:100F90003FB7F8948091050190910601A091070157
:100FA000B091080126B5A89B05C02F3F19F0019606
:100FB000A11DB11D3FBFBA2FA92F982F8827BC01B3
:100FC000CD01620F711D811D911D42E0660F771FDB
:100FD000881F991F4A95D1F708951F920F920FB657
:100FE0000F9211242F933F938F939F93AF93BF93AF
:100FF0008091010190910201A0910301B09104013F
:101000003091000123E0230F2D3758F50196A11DE3
:10101000B11D209300018093010190930201A093E0
:101020000301B09304018091050190910601A09104
:101030000701B09108010196A11DB11D8093050122
:1010400090930601A0930701B0930801BF91AF915F
:101050009F918F913F912F910F900FBE0F901F90F6
:10106000189526E8230F0296A11DB11DD2CF1F921D
:101070000F920FB60F9211242F933F934F935F93CC
:101080006F937F938F939F93AF93BF93EF93FF9350
:101090008091090190910A0120910C0130910D017C
:1010A0008217930708F484C080910B0140910901D5
:1010B00050910A01B901680F711D6417750709F095
:1010C0006EC080916F008D7F80936F008091810052
:1010D0008E7F809381008091B1008E7F8093B100DC
:1010E000E3E7F0E08491EFEAF0E09491EBE9F0E0DF
:1010F000E491EE23C9F0882349F08330C9F170F5FB
:10110000813009F43BC0823009F43CC0F0E0EE0FBE
:10111000FF1FE458FF4FA591B4918FB7F894EC915D
:1011200090959E239C938FBF8091090190910A0115
:10113000019690930A0180930901FF91EF91BF916D
:10114000AF919F918F917F916F915F914F913F915F
:101150002F910F900FBE0F901F9018958730A9F018
:101160008830C9F0843091F6809180008F7D03C073
:10117000809180008F7780938000C8CF84B58F776F
:1011800084BDC4CF84B58F7DFBCF8091B0008F77B5
:101190008093B000BBCF8091B0008F7DF9CF40919C
:1011A000090150910A01820F841B8093B300BCCFC8
:1011B0008091090190910A01E0910E01F0910F01D7
:1011C000E80FF91FE491E093B300AECF789484B5B3
:1011D000826084BD84B5816084BD85B5826085BD33
:1011E00085B5816085BD80916E00816080936E00C1
:1011F00010928100809181008260809381008091B3
:101200008100816080938100809180008160809363
:1012100080008091B10084608093B1008091B00023
:1012200081608093B00080917A00846080937A001E
:1012300080917A00826080937A0080917A00816048
:1012400080937A0080917A00806880937A0010926F
:10125000C10088EB90E090930F0180930E0180EB2A
:101260009EE090930D0180930C01EFEAF0E0249151
:10127000EBE9F0E08491882399F090E0880F991FC2
:10128000FC01EA57FF4FA591B491FC01E458FF4FD0
:10129000859194918FB7F894EC91E22BEC938FBFEA
:1012A0008091B6008F798093B6008091B000836002
:1012B0008093B0008091B100877F8093B1008091CE
:1012C000B0008F7B80688093B0008091B0008F7CED
:1012D0008093B0008091B100887F81608093B100DD
:1012E000E0910E01F0910F01E491E093B300F894C6
:1012F00080918100877E886080938100809180004A
:101300008C7F8093800080918100887F81608093B2
:10131000810080ED97E09093890080938800809110
:101320006F00826080936F0080910C0190910D019D
:101330000197E0910E01F0910F01E80FF91FE49180
:10134000E0930B0110920A01109209017894C0E019
:10135000D0E00E94C8074B015C0188EEC82E83E0F4
:10136000D82EE12CF12C0E94C807681979098A0946
:101370009B09683E734081059105A8F321E0C21ADC
:10138000D108E108F10888EE880E83E0981EA11CC0
:10139000B11CC114D104E104F10429F72097C9F26A
:0A13A0000E940000D6CFF894FFCFA2
:00000001FF
